:100000000C9445000C9462000C9462000C94620005
:100010000C944A020C9462000C9462000C946200EE
:100020000C9462000C9462000C9462000C946200C8
:100030000C9462000C9462000C9462000C946200B8
:100040000C9462000C9462000C9462000C946200A8
:100050000C9462000C9462000C9462000C94620098
:100060000C9462000C9462006E00700072007400C8
:10007000760078007A007C007E00A400AF00BA0011
:10008000C500D000DB00E600F10011241FBECFEF59
:10009000D8E0DEBFCDBF11E0A0E0B1E0EEEBF5E0CF
:1000A00002C005900D92A630B107D9F721E0A6E075
:1000B000B1E001C01D92A631B207E1F70E946B01C9
:1000C0000C94DD020C94000090E0FC013197E930C3
:1000D000F105B0F4EC5CFF4F0C94D70280E3089577
:1000E0008DE6089589E7089583E308958BE50895E3
:1000F0008FE5089580E708958FE708958BE70895C9
:100100008EE70895CF93C82F862F0E946400282F72
:10011000220F220F80958295869586958370C82B35
:100120008C2F90E0982F88272095820F911DCF91DA
:10013000089590E0FC013197E830F10508F05BC0CC
:10014000E35CFF4F0C94D70260910D018091030195
:100150000E94820080931501909310010895609190
:100160000F01809102010E94820080930A01909306
:100170000601089560910701809101010E948200AB
:10018000809308019093120108956091110180916C
:1001900000010E94820080930B0190930901089551
:1001A00060910C01809103010E94820080931501EF
:1001B00090931001089560911301809102010E94B3
:1001C000820080930A0190930601089560911401C2
:1001D000809101010E948200809308019093120196
:1001E000089560910E01809100010E948200809329
:1001F0000B019093090108958091100185B98091B8
:1002000015018BB98FE39FE10197F1F700C0000062
:100210008091060185B980910A018BB98091140102
:10022000853018F085B18D7385B98FED9EE2019709
:10023000F1F700C000008091120185B9809108019A
:100240008BB98FE39FE10197F1F700C00000809127
:10025000090185B980910B018BB98FED9EE2019761
:10026000F1F700C0000008959AE08091100185B96F
:10027000809115018BB9EFE3FFE13197F1F700C0F1
:1002800000008091060185B980910A018BB985B182
:100290008D7385B9EFEDFEE23197F1F700C00000F4
:1002A0008091120185B9809108018BB9EFE3FFE1DC
:1002B0003197F1F700C000008091090185B9809164
:1002C0000B018BB9EFEDFEE23197F1F700C00000B2
:1002D000915059F608958FEF84B98AB980E387B9B0
:1002E0008FE088B9E8E6F0E0808182608083ECE608
:1002F000F0E08081886080837894C0E0C12CDC2CA1
:10030000BB24B3940C2DEC2CDB2DC0920D018091FD
:100310000D018330D0F7FE2CD0920F0180910F0198
:100320008A3008F0ACC01F2D80910D01823071F42D
:1003300080910F01843051F400930D0100930F015F
:100340008B2D0E94990082E00E9499000093070182
:1003500080910701863008F088C0E09211018091F9
:1003600011018A3008F077C0E0920C0180910C01F5
:10037000863008F066C0F0921301809113018A3034
:1003800008F055C0F0921401809114018A3008F0F1
:1003900044C010930E0180910E018A30A0F5329B6B
:1003A00002C0C13089F485E00E94990086E00E9475
:1003B000990087E00E94990088E00E949900449A81
:1003C000319B06C0CD2F14C0319B02C0C11110C09B
:1003D0008D2F0E94990082E00E94990083E00E9484
:1003E000990084E00E94990088B18F7288B9C12F6A
:1003F0000E94FC0080910E018F5F80930E0180911E
:100400000E018A3060F2809114018F5F8093140195
:10041000809114018A3008F4BCCF809113018F5F62
:1004200080931301809113018A3008F4ABCF80913F
:100430000C018F5F80930C0180910C01863008F4D1
:100440009ACF809111018F5F8093110180911101EA
:100450008A3008F489CF809107018F5F809307016C
:1004600080910701863008F478CF80910F018F5F6B
:1004700080930F0180910F018A3008F455CF80914D
:100480000D018F5F80930D0180910D01833008F481
:1004900043CF3BCF1F920F920FB60F9211242F9391
:1004A0003F934F935F936F937F938F939F93AF93FC
:1004B000BF93EF93FF9396B18091040126B12093EF
:1004C0000401892780FF62C0449A81E00E9499005C
:1004D00082E00E94990083E00E94990084E00E94DB
:1004E00099000E943401319911C080910F01893027
:1004F00031F080910F018F5F80930F0107C0109240
:100500000F0180910D018F5F80930D0132991DC005
:1005100080911101893031F0809111018F5F8093BA
:10052000110107C010921101809107018F5F809324
:10053000070180910701863041F4809111018111FA
:1005400004C01092070110921101329B02C0319930
:1005500018C080910D01823041F480910F018430E8
:1005600021F410920D0110920F0181E00E94990078
:1005700082E00E94990083E00E94990084E00E943A
:1005800099003399AECF88B18F7288B9FF91EF91FE
:10059000BF91AF919F918F917F916F915F914F919B
:1005A0003F912F910F900FBE0F901F901895EE0F57
:0E05B000FF1F0590F491E02D0994F894FFCF01
:0605BE001C2C34380F0074
:00000001FF
